:101ADD0010100000000000000000000000000000D9
:101AED0000001028000000000000000000000000B1
:0C1AFD000000000002380000022200007F
:10158800E4F5B0D2B1D290D291D292D293F524F5AB
:1015980025F51075110C75120975131E7514A975AA
:1015A800153E75164675177C7518F075197C751AF1
:1015B80006751B3E751C09751D1E751E0F751F0CC3
:1015C800F53EF53FC3E53B9408E53A6480948050C6
:1015D8000D1218EE053BE53B70EA053A80E6E4F5A6
:1015E8003AF53B053FE53F7002053EC394F4E53EFE
:1015F8006480948140CE121B6112134CE4F53EF5D1
:101608003FC3E53B9408E53A648094805010121873
:10161800EE121881053BE53B70E7053A80E3E4F5F7
:101628003AF53B053FE53F7002053EC39432E53E7F
:101638006480948040CB1216580525E52570020574
:101648002412178D121A71120D14121B0A02160198
:0B1B6100E4FF7E107810E4F608DEFCC4
:011B6C002256
:10188100309006750A00750B0120900FE50B64017D
:10189100450A7007F50AF50B1219EB309106750E22
:1018A10000750F0120910FE50F6401450E7007F5DA
:1018B1000EF50F121A3130920675080075090120D4
:1018C100920FE509640145087007F508F509120052
:1018D10003309306750C00750D0120930FE50D641F
:0D18E10001450C7007F50CF50D12181222D0
:061A71007B007A007910F1
:061A77008B4A8A4B894CEA
:101A7D00E4FDFCED25E0FFEC33FEAB4AE54C2FF920
:101A8D00E54B3EFA1214E925E0FFE5F0338FF01235
:0D1A9D0015140DBD00010CED64084C70D651
:011AAA002219
:1019EB00E4F540F541E51F451E703A7F06FEEF25F5
:1019FB00E02410F8E6FC08E6FDEF25E02412F8E6FB
:101A0B00FA08E6FBEF25E02410F8A60208A603EF80
:101A1B0025E02412F8A60408A605EF1F70011EBED0
:051A2B00FFCCBFFFC964
:011A30002293
:101A3100E51145107039FFFEEF25E02410F8E6FCB2
:101A410008E6FDEF25E02412F8E6FA08E6FBEF25AB
:101A5100E02410F8A60208A603EF25E02412F8A658
:0F1A61000408A6050FBF00010EEF64074E70C901
:011A70002253
:10000300E53C6003020D13E53DB412004003020D0D
:100013001390001BF82828730200510200E7020125
:100023006C02025F0202C302035302049D02053401
:1000330002062A0206BC02077A0207E30208C60286
:100043000981020A10020AF4020B8B020C81E511EA
:100053004510603774047E00A825088005C333CE9D
:1000630033CED8F9FFC007C006121B40EF25E024AA
:1000730010F8D0E0F608D0E0F674027E00A8250858
:100083008005C333CE33CED8F9803574027E00A801
:1000930025088005C333CE33CED8F9FFC007C00689
:1000A300121B40EF25E0240EF8D0E0F608D0E0F66E
:1000B30074017E00A825088005C333CE33CED8F95A
:1000C300FFC007C006121B40EF25E02414F8D0E060
:1000D300F608D0E0F6752600752702753C00753DDD
:1000E30004020AEDE525640D45246010E525640E40
:1000F30045246008E525640F45247013121B401244
:100103001B36EF25E02410F876F0087600803212D3
:100113001B40EF25E02410F8E4F608F6740F7E0088
:10012300A825088005C333CE33CED8F9FFC007C056
:1001330006121B40EF25E02410F8D0E0F608D0E0CB
:10014300F6121B40EF25E02412121B3BEF25E0249F
:1001530014F8E4F608F6752600752704753C007557
:100163003D0575200075210122E5114510606F746E
:10017300027E00A825088005C333CE33CED8F9FF0D
:10018300C007C006121B40EF25E02410F8D0E0F6AC
:1001930008D0E0F674027E00A825088005C333CE9C
:1001A30033CED8F9FFC007C006121B40EF25E02469
:1001B30012F8D0E0F608D0E0F674037E00A8250814
:1001C3008005C333CE33CED8F9FFC007C006121B58
:1001D30040EF25E02414F8D0E0F608D0E0F67402EE
:1001E3007E00A825088005C333CE33CED8F9FFC0DF
:1001F30007C006121B40EF25E0240EF8D0E0F608F6
:10020300D0E0F674027E00A825088005C333CE3300
:10021300CED8F9FFC007C006121B40EF25E0241219
:10022300F8D0E0F608D0E0F674037E00A825088035
:1002330005C333CE33CED8F9FFC007C006121B4027
:10024300EF25E02414F8D0E0F608D0E0F675260098
:10025300752702753C00753D06020AED74027E00A7
:10026300A825088005C333CE33CED8F9FFC007C015
:1002730006121B40EF25E02410F8D0E0F608D0E08A
:10028300F674077E00A825088005C333CE33CED885
:10029300F9FFC007C006121B40EF25E02412F8D077
:1002A300E0F608D0E0F6121B40EF25E02414F8E452
:1002B300F608F6F526752703F53C753D0902034E4E
:1002C300E525640E45247021121B40121B36EF25D1
:1002D300E02410F87660087600121B40EF25E02436
:1002E30012F876C00876008057121B40EF25E024F1
:1002F30010F8E4F608F674037E00A825088005C309
:1003030033CE33CED8F9FFC007C006121B40EF250A
:10031300E02410F8D0E0F608D0E0F674067E00A8DA
:1003230025088005C333CE33CED8F9FFC007C006F6
:10033300121B40EF25E02412F8D0E0F608D0E0F6D7
:10034300752600752703E4F53CF53DF520020D10F5
:10035300E525640D45247003020D13E525640E4560
:10036300247003020D13E525640F45247003020D69
:1003730013E51B451A700CE51D451C7006E51F456A
:100383001E6035AD2574017E00A805088005C333C2
:10039300CE33CED8F98E18F5198E1AF51B74017E5B
:1003A30000A805088005C333CE33CED8F98E1CF5DB
:1003B3001D8E1EF51F02048AE51145106035AD251B
:1003C30074017E00A805088005C333CE33CED8F967
:1003D3008E10F5118E12F51374017E00A8050880A6
:1003E30005C333CE33CED8F98E14F5158E16F51713
:1003F30002048A74017E00A825088005C333CE3326
:10040300CED8F9FFC007C006121B40EF25E0240E2B
:10041300F8D0E0F608D0E0F674017E00A825088045
:1004230005C333CE33CED8F9FFC007C006121B4035
:10043300EF25E02412F8D0E0F608D0E0F674017E50
:1004430000A825088005C333CE33CED8F9FFC007F3
:10045300C006121B40EF25E02414F8D0E0F608D0C4
:10046300E0F674017E00A825088005C333CE33CEA1
:10047300D8F9FFC007C006121B40EF25E02416F889
:10048300D0E0F608D0E0F6752600752701753C002C
:10049300753D0175200075210422E525640E452470
:1004A3006008E525640F4524701E121B40EF25E00C
:1004B3002410F87620087600121B40EF25E0241262
:1004C300F876E0087600804A74017E00A82508804B
:1004D30005C333CE33CED8F9FFC007C006121B4085
:1004E300EF25E02410F8D0E0F608D0E0F674077E9C
:1004F30000A825088005C333CE33CED8F9FFC00743
:10050300C006121B40EF25E02412F8D0E0F608D015
:10051300E0F6121B40EF25E02414F8E4F608F67524
:100523002600752703753C00753D07752000020DF5
:1005330010E51F451E606F74037E00A82508800523
:10054300C333CE33CED8F9FFC007C006121B40EF2A
:1005530025E0240EF8D0E0F608D0E0F674017E0022
:10056300A825088005C333CE33CED8F9FFC007C012
:1005730006121B40EF25E02412F8D0E0F608D0E085
:10058300F674017E00A825088005C333CE33CED888
:10059300F9FFC007C006121B40EF25E02414F8D072
:1005A300E0F608D0E0F674037E00A825088005C3B2
:1005B30033CE33CED8F9FFC007C006121B40EF2558
:1005C300E02410F8D0E0F608D0E0F674017E00A82D
:1005D30025088005C333CE33CED8F9FFC007C00644
:1005E300121B40EF25E02412F8D0E0F608D0E0F625
:1005F30074017E00A825088005C333CE33CED8F915
:10060300FFC007C006121B40EF25E02414F8D0E01A
:10061300F608D0E0F6752600752702753C00753D97
:1006230008752000020D10E525640E452470211283
:100633001B40121B36EF25E02410F876E008760005
:10064300121B40EF25E02412F876800876008057CD
:10065300121B40EF25E02410F8E4F608F674077E39
:1006630000A825088005C333CE33CED8F9FFC007D1
:10067300C006121B40EF25E02410F8D0E0F608D0A6
:10068300E0F674047E00A825088005C333CE33CE7C
:10069300D8F9FFC007C006121B40EF25E02412F86B
:1006A300D0E0F608D0E0F6752600752703753C0008
:1006B300753D02752000020D10E51F451E605C7438
:1006C300027E00A825088005C333CE33CED8F9FFB8
:1006D300C007C006121B40EF25E0240EF8D0E0F659
:1006E30008D0E0F674067E00A825088005C333CE43
:1006F30033CED8F9FFC007C006121B40EF25E02414
:1007030012F8D0E0F608D0E0F674027E00A82508BF
:100713008005C333CE33CED8F9803574067E00A866
:1007230025088005C333CE33CED8F9FFC007C006F2
:10073300121B40EF25E02412F8D0E0F608D0E0F6D3
:1007430074027E00A825088005C333CE33CED8F9C2
:10075300FFC007C006121B40EF25E02414F8D0E0C9
:10076300F608D0E0F6752600752703753C00753D45
:100773000A752000020D10121B40EF25E02410F82B
:10078300E4F608F674077E00A825088005C333CE77
:1007930033CED8F9FFC007C006121B40EF25E02473
:1007A30010F8D0E0F608D0E0F674027E00A8250821
:1007B3008005C333CE33CED8F9FFC007C006121B62
:1007C30040EF25E02412F8D0E0F608D0E0F67526D5
:1007D30000752703753C00753D0B752000020D1055
:1007E300E5114510605C74027E00A825088005C3EE
:1007F30033CE33CED8F9FFC007C006121B40EF2516
:10080300E02410F8D0E0F608D0E0F674037E00A8E8
:1008130025088005C333CE33CED8F9FFC007C00601
:10082300121B40EF25E02412F8D0E0F608D0E0F6E2
:1008330074027E00A825088005C333CE33CED8F9D1
:10084300805A74027E00A825088005C333CE33CEB8
:10085300D8F9FFC007C006121B40EF25E0240EF8AD
:10086300D0E0F608D0E0F674037E00A825088005E2
:10087300C333CE33CED8F9FFC007C006121B40EFF7
:1008830025E02412F8D0E0F608D0E0F674027E00EA
:10089300A825088005C333CE33CED8F9FFC007C0DF
:1008A30006121B40EF25E02414F8D0E0F608D0E050
:1008B300F6752600752702753C00753D037520000B
:1008C300020D10E51F451E605C74017E00A825081B
:1008D3008005C333CE33CED8F9FFC007C006121B41
:1008E30040EF25E0240EF8D0E0F608D0E0F67403DC
:1008F3007E00A825088005C333CE33CED8F9FFC0C8
:1009030007C006121B40EF25E02412F8D0E0F608DA
:10091300D0E0F674027E00A825088005C333CE33E9
:10092300CED8F9803574017E00A825088005C3332D
:10093300CE33CED8F9FFC007C006121B40EF25E027
:100943002410F8D0E0F608D0E0F674027E00A82563
:10095300088005C333CE33CED8F9FFC007C00612D3
:100963001B40EF25E02414F8D0E0F608D0E0F6753C
:100973002600752702753C00753D0D020AEDE5253D
:10098300640E4524701E121B40EF25E02410F876F8
:10099300C0087600121B40EF25E02412F8766008A9
:1009A3007600804A74067E00A825088005C333CEEE
:1009B30033CED8F9FFC007C006121B40EF25E02451
:1009C30010F8D0E0F608D0E0F674037E00A82508FE
:1009D3008005C333CE33CED8F9FFC007C006121B40
:1009E30040EF25E02412F8D0E0F608D0E0F6121B21
:1009F30040EF25E02414F8E4F608F6752600752781
:100A030003753C00753D0C752000020D10E5114582
:100A130010605C74017E00A825088005C333CE33C3
:100A2300CED8F9FFC007C006121B40EF25E0241003
:100A3300F8D0E0F608D0E0F674017E00A82508801F
:100A430005C333CE33CED8F9FFC007C006121B400F
:100A5300EF25E02412F8D0E0F608D0E0F674037E28
:100A630000A825088005C333CE33CED8F9805A7445
:100A7300017E00A825088005C333CE33CED8F9FF05
:100A8300C007C006121B40EF25E0240EF8D0E0F6A5
:100A930008D0E0F674017E00A825088005C333CE94
:100AA30033CED8F9FFC007C006121B40EF25E02460
:100AB30012F8D0E0F608D0E0F674037E00A825080B
:100AC3008005C333CE33CED8F9FFC007C006121B4F
:100AD30040EF25E02414F8D0E0F608D0E0F67526C0
:100AE30000752702753C00753D0F752000752103C5
:100AF30022E525640E45246008E525640F4524702E
:100B03001E121B40EF25E02410F876E00876001251
:100B13001B40EF25E02412F87620087600804A7403
:100B2300077E00A825088005C333CE33CED8F9FF4E
:100B3300C007C006121B40EF25E02410F8D0E0F6F2
:100B430008D0E0F674017E00A825088005C333CEE3
:100B530033CED8F9FFC007C006121B40EF25E024AF
:100B630012F8D0E0F608D0E0F6121B40EF25E0249F
:100B730014F8E4F608F6752600752703753C00752E
:100B83003D10752000020D10E51F451E606F7403B4
:100B93007E00A825088005C333CE33CED8F9FFC025
:100BA30007C006121B40EF25E0240EF8D0E0F6083C
:100BB300D0E0F674027E00A825088005C333CE3347
:100BC300CED8F9FFC007C006121B40EF25E0241260
:100BD300F8D0E0F608D0E0F674027E00A82508807D
:100BE30005C333CE33CED8F9FFC007C006121B406E
:100BF300EF25E02414F8D0E0F608D0E0F674037E85
:100C030000A825088005C333CE33CED8F9FFC0072B
:100C1300C006121B40EF25E02410F8D0E0F608D000
:100C2300E0F674027E00A825088005C333CE33CED8
:100C3300D8F9FFC007C006121B40EF25E02412F8C5
:100C4300D0E0F608D0E0F674027E00A825088005FF
:100C5300C333CE33CED8F9FFC007C006121B40EF13
:100C630025E02414F8D0E0F608D0E0F675260075E8
:100C73002702753C00753D11752000020D10E52516
:100C8300640E45247021121B40121B36EF25E0240D
:100C930010F87680087600121B40EF25E02412F846
:100CA30076E00876008057121B40EF25E02410F809
:100CB300E4F608F674047E00A825088005C333CE45
:100CC30033CED8F9FFC007C006121B40EF25E0243E
:100CD30010F8D0E0F608D0E0F674077E00A82508E7
:100CE3008005C333CE33CED8F9FFC007C006121B2D
:100CF30040EF25E02412F8D0E0F608D0E0F67526A0
:100D030000752703753C00753D0E752000752102A3
:010D130022BD
:10181200C374109525F541E49524F540C3E5406471
:10182200809480405912165812178D121A71E527AA
:101832002401FFE43526FEEF65417003EE6540703A
:1018420033FFFEEF25E02428F8C000E6FC08E6FDA1
:10185200EF25E02410F8E6FA08E6FBEC4AFCED4B33
:10186200D000A60408F60FBF00010EEF64084E7008
:0E187200D2021B61E541154170A21540809E17
:011880002245
:10178D00E4F542F543E4FDFCED25E02410F8E6FE1A
:10179D0008E625E0FFEE33FEED25E02428F8E6FA15
:1017AD0008E6FBEE5AFEEF5B4E603BE4F53AF53B87
:1017BD00AF3BEF25E02428F8C000E6FA08E6FBEF82
:1017CD0025E02410F8E6FE08E6FFEA4EFEEB4FD0CA
:1017DD0000A60608F6053BE53B7002053A64084590
:1017ED003A70CD121B610DBD00010CED64084C70FB
:1017FD00970543E54370020542C39408E5426480B2
:04180D009480408102
:0118110022B4
:10165800E525640F4524700EE527640145267006CC
:10166800121AAB121B61E525640E4524700EE5279E
:10167800640245267006121AAB121B61E525640D3B
:1016880045247008E527640345266020E525640E97
:1016980045247008E527640345266010E525640F96
:1016A8004524700EE527640345267006121AAB120E
:1016B8001B61E525640C45247008E527640445266C
:1016C8006030E525640D45247008E5276404452647
:1016D8006020E525640E45247008E5276404452646
:1016E8006010E525640F4524700EE527640445263F
:0916F8007006121AAB121B6122EC
:101AAB00E4FFFEEF25E02428F8C000E6FC08E6FD85
:101ABB00EF25E02410F8E6FA08E6FBEC4AFCED4BC8
:101ACB00D000A60408F60FBF00010EEF64084E709D
:011ADB00D238
:011ADC0022E7
:10134C00E511451060030214B2E513451260030267
:10135C0014B2E515451460030214B2E51745166086
:10136C00030214B2E519451860030214B2E51B45DB
:10137C001A60030214B2E51D451C60030214B2E5A9
:10138C001F451E60030214B212199E7C007D0712C9
:10139C0014B3EC60030214ADEDB407004003021467
:1013AC00AD9013B4F82828730213C90213E5021484
:1013BC000302142F02144C02146F02148F751600C2
:1013CC00751703751800751906752600752703E443
:1013DC00F53CF53DF5200214AA751600751703753A
:1013EC00180075190375260075270274FFF53CF576
:1013FC003D7520000214AA751400751501751600B0
:10140C00751701751800751901751A00751B017592
:10141C002600752701753C00753D0175200075216E
:10142C0004807E75160075170775180075190475FC
:10143C002600752703753C00753D02752000805E03
:10144C00751600751702751800751903751A007555
:10145C001B02752600752702753C00753D0375202F
:10146C0000803B7516007517067518007519037505
:10147C002600752703753C00753D0C752000752101
:10148C0003801E75160075170475180075190775FD
:10149C002600752703753C00753D0E7520007521DF
:0714AC0002E4F524F52522FE
:10195100752200752307AE23EFA806088003A2E7CE
:1019610013D8FB1392B2EDA806088003A2E713D89F
:10197100FB1392B3AE23EBA806088003A2E713D8AA
:10198100FB1392B4D2B0C2B0E52315237002152225
:0D199100E523B4FFC1E522B4FFBCC2B222C1
:1018EE00AF3BEF25E02428F8E6FC08E6FDEF25E007
:1018FE002410F8E6FE08E6FFEE4CFEEF4DF4FFEE88
:0C190E00F4FEEDF4FDECF4FCAB39AA385B
:10191A008E408F418C428D438A448B45C2B1E5404B
:10192A00FFE542FDE544FB121951AF41E543FDE5F0
:10193A0045FB121951AF3B7401A807088002C33353
:07194A00D8FCF5A0D2B12288
:0A1B3600EF25E02410F8E4F608F6AD
:101B4000E4FFFEEF25E02410F8E6FC08E64C600117
:101B5000220FBF00010EEF64084E70E77EFF7FFF8B
:011B60002262
:101B0A00E4FDFCED25E02428F808E630E012121B7B
:101B1A0061E4F538F539FF7E107828E4F608DEFC32
:0B1B2A000DBD00010CED64084C70D8EC
:011B3500228D
:100D1400E4F548F549F542F543F546754701E547DD
:100D24004546700302134BE4F540F541E54125E0E7
:100D34002428F8E6FE08E6FFE5465EFEE5475F4E3A
:100D440060080543E54370020542E54364084542F3
:100D54006003021322FFFEEF25E02428F8E6FC08D6
:100D6400E6FDE547F4FBE546F45CFCEB5DFDEF25B1
:100D7400E02428F8A60408A6050FBF00010EEF64BE
:100D8400084E70D3E4B5470EE546B480097B007A7B
:100D9400007928121A77E5477004E54664407059D3
:100DA400F544F545AF45EF25E02428F8E6FC08E6D0
:100DB400FDEC547FF5488D49EF25E02428F8EC54E8
:100DC40080F6087600E54925E0F549E54833F5481D
:100DD400E54525E02428F8C000E6FE08E6FFE548DE
:100DE4004EFEE5494FD000A60608F60545E54570D8
:100DF4000205446408454470ABE5477004E5466465
:100E0400207059F544F545AF45EF25E02428F8E670
:100E1400FC08E6FDEC543FF5488D49EF25E0242815
:100E2400F8EC54C0F6087600E54925E0F549E548B4
:100E340033F548E54525E02428F8C000E6FE08E639
:100E4400FFE5484EFEE5494FD000A60608F60545E5
:100E5400E545700205446408454470ABE5477004F9
:100E6400E54664107059F544F545AF45EF25E02497
:100E740028F8E6FC08E6FDEC541FF5488D49EF25FB
:100E8400E02428F8EC54E0F6087600E54925E0F57E
:100E940049E54833F548E54525E02428F8C000E64F
:100EA400FE08E6FFE5484EFEE5494FD000A60608D9
:100EB400F60545E545700205446408454470ABE514
:100EC400477004E54664087059F544F545AF45EFAD
:100ED40025E02428F8E6FC08E6FDEC540FF5488DDF
:100EE40049EF25E02428F8EC54F0F6087600E549AB
:100EF40025E0F549E54833F548E54525E02428F89B
:100F0400C000E6FE08E6FFE5484EFEE5494FD00086
:100F1400A60608F60545E5457002054464084544FF
:100F240070ABE5477004E54664047059F544F54533
:100F3400AF45EF25E02428F8E6FC08E6FDEC54076D
:100F4400F5488D49EF25E02428F8EC54F8F60876A6
:100F540000E54925E0F549E54833F548E54525E050
:100F64002428F8C000E6FE08E6FFE5484EFEE54901
:100F74004FD000A60608F60545E545700205446411
:100F840008454470ABE5477004E54664027059F5C2
:100F940044F545AF45EF25E02428F8E6FC08E6FDD6
:100FA400EC5403F5488D49EF25E02428F8EC54FC73
:100FB400F6087600E54925E0F549E54833F548E5C6
:100FC4004525E02428F8C000E6FE08E6FFE5484E83
:100FD400FEE5494FD000A60608F60545E545700232
:100FE40005446408454470ABE5477004E546640174
:100FF4007054F544F545AF45EF25E02428F8E6FCA8
:1010040008E6FDEC5401F5488D49EF25E02429F864
:10101400E4F6E54925E0F549E54833F548E5452595
:10102400E02428F8C000E6FE08E6FFE5484EFEE5A9
:10103400494FD000A60608F60545E545700205446B
:101044006408454470B0E547648045467053F544F0
:10105400F545AF45EF25E02428F808E67548005427
:101064007FF549EF25E02429F8E65480F6E5492583
:10107400E0F549E54833F548E54525E02428F8C07E
:1010840000E6FE08E6FFE5484EFEE5494FD000A61F
:101094000608F60545E545700205446408454470B4
:1010A400B1E547644045467053F544F545AF45EF17
:1010B40025E02428F808E6754800543FF549EF2553
:1010C400E02429F8E654C0F6E54925E0F549E54869
:1010D40033F548E54525E02428F8C000E6FE08E697
:1010E400FFE5484EFEE5494FD000A60608F6054543
:1010F400E545700205446408454470B1E547642041
:1011040045467053F544F545AF45EF25E02428F8EE
:1011140008E6754800541FF549EF25E02429F8E650
:1011240054E0F6E54925E0F549E54833F548E54559
:1011340025E02428F8C000E6FE08E6FFE5484EFE58
:10114400E5494FD000A60608F60545E545700205B9
:10115400446408454470B1E547641045467053F54E
:1011640044F545AF45EF25E02428F808E675480026
:10117400540FF549EF25E02429F8E654F0F6E54943
:1011840025E0F549E54833F548E54525E02428F808
:10119400C000E6FE08E6FFE5484EFEE5494FD000F4
:1011A400A60608F60545E54570020544640845446D
:1011B40070B1E547640845467053F544F545AF45BD
:1011C400EF25E02428F808E67548005407F549EFB0
:1011D40025E02429F8E654F8F6E54925E0F549E543
:1011E4004833F548E54525E02428F8C000E6FE0824
:1011F400E6FFE5484EFEE5494FD000A60608F60591
:1012040045E545700205446408454470B1E547640A
:101214000445467053F544F545AF45EF25E02428D1
:10122400F808E67548005403F549EF25E02429F849
:10123400E654FCF6E54925E0F549E54833F548E58B
:101244004525E02428F8C000E6FE08E6FFE5484E00
:10125400FEE5494FD000A60608F60545E5457002AF
:1012640005446408454470B1E5476402454670533B
:10127400F544F545AF45EF25E02428F808E6754820
:10128400005402F549EF25E02429F8E654FEF6E57A
:101294004925E0F549E54833F548E54525E02428A6
:1012A400F8C000E6FE08E6FFE5484EFEE5494FD0EB
:1012B40000A60608F60545E54570020544640845A0
:1012C4004470B10539E53970020538640A4538605F
:1012D40040E539641A45386038E539642A45386090
:1012E40030E539643A45386028E539644A45386060
:1012F40020E539645A45386018E539646A45386030
:1013040010E539647A45386008E539648A453870EF
:101314002374062539F539E43538F5388016054146
:10132400E54170020540C39408E540648094805010
:1013340003020D30E4F542F543E54725E0F547E5C2
:071344004633F546020D22BD
:01134B00227F
:03000000021701E3
:0C170100787FE4F6D8FD7581500217488F
:1014B300C2D5EC30E709B2D5E4C39DFDE49CFCEE54
:1014C30030E715B2D5E4C39FFFE49EFE121533C384
:1014D300E49DFDE49CFC800312153330D507C3E47F
:0614E3009FFFE49EFE22C3
:1014E900BB010A89828A83E0F5F0A3E022500687CE
:1014F900F009E71922BBFE07E3F5F009E319228990
:0B150900828A83E493F5F074019322C2
:10151400BB010A89828A83F0E5F0A3F0225006F722
:0F15240009A7F01922BBFE06F3E5F009F319221F
:10199E00AC4DAD4EAE4FAF507810EC4D4E4F700477
:1019AE007CA57DA5C3EC13FCED13FDEE13FEEF132A
:1019BE00FF5010EC64CCFCED644CFDEE644EFEEF7B
:1019CE0064CEFFD8DF8C4D8D4E8E4F8F50EE547FF0
:0D19DE00FE228E4D8F4E74A5F54FF5502260
:10170D00021588E493A3F8E493A34003F68001F255
:10171D0008DFF48029E493A3F85407240CC8C333DD
:10172D00C4540F4420C8834004F456800146F6DFAC
:10173D00E4800B0102040810204080901ADDE47E45
:10174D00019360BCA3FF543F30E509541FFEE493A1
:10175D00A360010ECF54C025E060A840B8E493A368
:10176D00FAE493A3F8E493A3C8C582C8CAC583CA93
:10177D00F0A3C8C582C8CAC583CADFE9DEE780BE4B
:011B090000DB
:10153300BC000BBE0029EF8DF084FFADF022E4CC9C
:10154300F875F008EF2FFFEE33FEEC33FCEE9DEC65
:10155300984005FCEE9DFE0FD5F0E9E4CEFD22EDAB
:10156300F8F5F0EE8420D21CFEADF075F008EF2FF5
:10157300FFED33FD4007985006D5F0F222C398FDE6
:051583000FD5F0EA2283
:00000001FF
